{
  "contractName": "FileStorage",
  "abi": [
    {
      "constant": false,
      "inputs": [],
      "name": "renounceOwnership",
      "outputs": [],
      "payable": false,
      "stateMutability": "nonpayable",
      "type": "function"
    },
    {
      "constant": true,
      "inputs": [],
      "name": "owner",
      "outputs": [
        {
          "name": "",
          "type": "address"
        }
      ],
      "payable": false,
      "stateMutability": "view",
      "type": "function"
    },
    {
      "constant": true,
      "inputs": [],
      "name": "isOwner",
      "outputs": [
        {
          "name": "",
          "type": "bool"
        }
      ],
      "payable": false,
      "stateMutability": "view",
      "type": "function"
    },
    {
      "constant": true,
      "inputs": [],
      "name": "canAddFile",
      "outputs": [
        {
          "name": "",
          "type": "bool"
        }
      ],
      "payable": false,
      "stateMutability": "view",
      "type": "function"
    },
    {
      "constant": false,
      "inputs": [
        {
          "name": "newOwner",
          "type": "address"
        }
      ],
      "name": "transferOwnership",
      "outputs": [],
      "payable": false,
      "stateMutability": "nonpayable",
      "type": "function"
    },
    {
      "inputs": [],
      "payable": false,
      "stateMutability": "nonpayable",
      "type": "constructor"
    },
    {
      "payable": true,
      "stateMutability": "payable",
      "type": "fallback"
    },
    {
      "anonymous": false,
      "inputs": [
        {
          "indexed": false,
          "name": "_sender",
          "type": "address"
        },
        {
          "indexed": false,
          "name": "_fileHash",
          "type": "bytes32"
        },
        {
          "indexed": false,
          "name": "_hashFunction",
          "type": "bytes1"
        },
        {
          "indexed": false,
          "name": "_hashSize",
          "type": "bytes1"
        },
        {
          "indexed": false,
          "name": "_fileType",
          "type": "uint8"
        }
      ],
      "name": "AddedFile",
      "type": "event"
    },
    {
      "anonymous": false,
      "inputs": [
        {
          "indexed": true,
          "name": "previousOwner",
          "type": "address"
        },
        {
          "indexed": true,
          "name": "newOwner",
          "type": "address"
        }
      ],
      "name": "OwnershipTransferred",
      "type": "event"
    },
    {
      "constant": false,
      "inputs": [
        {
          "name": "_fileHash",
          "type": "bytes32"
        },
        {
          "name": "_hashFunction",
          "type": "bytes1"
        },
        {
          "name": "_hashSize",
          "type": "bytes1"
        },
        {
          "name": "_fileType",
          "type": "uint8"
        }
      ],
      "name": "addFile",
      "outputs": [],
      "payable": false,
      "stateMutability": "nonpayable",
      "type": "function"
    },
    {
      "constant": true,
      "inputs": [],
      "name": "getFileHashCount",
      "outputs": [
        {
          "name": "",
          "type": "uint256"
        }
      ],
      "payable": false,
      "stateMutability": "view",
      "type": "function"
    },
    {
      "constant": true,
      "inputs": [],
      "name": "getFileMetadataCount",
      "outputs": [
        {
          "name": "",
          "type": "uint256"
        }
      ],
      "payable": false,
      "stateMutability": "view",
      "type": "function"
    },
    {
      "constant": true,
      "inputs": [
        {
          "name": "_index",
          "type": "uint256"
        }
      ],
      "name": "getFileHash",
      "outputs": [
        {
          "name": "",
          "type": "bytes32"
        }
      ],
      "payable": false,
      "stateMutability": "view",
      "type": "function"
    },
    {
      "constant": true,
      "inputs": [
        {
          "name": "_index",
          "type": "uint256"
        }
      ],
      "name": "getFileMetadata",
      "outputs": [
        {
          "name": "",
          "type": "bytes32"
        }
      ],
      "payable": false,
      "stateMutability": "view",
      "type": "function"
    },
    {
      "constant": true,
      "inputs": [],
      "name": "getAllFileHashes",
      "outputs": [
        {
          "name": "",
          "type": "bytes32[]"
        }
      ],
      "payable": false,
      "stateMutability": "view",
      "type": "function"
    },
    {
      "constant": true,
      "inputs": [],
      "name": "getAllFileMetadata",
      "outputs": [
        {
          "name": "",
          "type": "bytes32[]"
        }
      ],
      "payable": false,
      "stateMutability": "view",
      "type": "function"
    },
    {
      "constant": true,
      "inputs": [
        {
          "name": "_user",
          "type": "address"
        }
      ],
      "name": "getFileHashesForAddress",
      "outputs": [
        {
          "name": "",
          "type": "bytes32[]"
        }
      ],
      "payable": false,
      "stateMutability": "view",
      "type": "function"
    },
    {
      "constant": true,
      "inputs": [
        {
          "name": "_user",
          "type": "address"
        }
      ],
      "name": "getFileMetadataForAddress",
      "outputs": [
        {
          "name": "",
          "type": "bytes32[]"
        }
      ],
      "payable": false,
      "stateMutability": "view",
      "type": "function"
    },
    {
      "constant": false,
      "inputs": [
        {
          "name": "value",
          "type": "bool"
        }
      ],
      "name": "setCanAddFile",
      "outputs": [],
      "payable": false,
      "stateMutability": "nonpayable",
      "type": "function"
    },
    {
      "constant": false,
      "inputs": [],
      "name": "kill",
      "outputs": [],
      "payable": false,
      "stateMutability": "nonpayable",
      "type": "function"
    }
  ],
  "bytecode": "0x60806040526001600360006101000a81548160ff02191690831515021790555034801561002b57600080fd5b50336000806101000a81548173ffffffffffffffffffffffffffffffffffffffff021916908373ffffffffffffffffffffffffffffffffffffffff1602179055506000809054906101000a900473ffffffffffffffffffffffffffffffffffffffff1673ffffffffffffffffffffffffffffffffffffffff16600073ffffffffffffffffffffffffffffffffffffffff167f8be0079c531659141344cd1fd0a4f28419497f9722a3daafe3b4186f6b6457e060405160405180910390a36100ff610144640100000000026401000000009004565b600160006101000a81548173ffffffffffffffffffffffffffffffffffffffff021916908373ffffffffffffffffffffffffffffffffffffffff16021790555061016d565b60008060009054906101000a900473ffffffffffffffffffffffffffffffffffffffff16905090565b61150c8061017c6000396000f3006080604052600436106100e6576000357c0100000000000000000000000000000000000000000000000000000000900463ffffffff16806308fb8143146100eb578063304aa9b914610116578063358ab0af146101ae57806341c0e1b51461021a5780634a8118ee146102315780635d3446ff146102c75780636ccb28e21461035f578063715018a6146103a85780637d05b172146103bf5780638d95cd70146103ea5780638da5cb5b146104565780638f32d59b146104ad578063946509aa146104dc578063eb1311351461050b578063f2fde38b14610554578063f91205ff14610597575b600080fd5b3480156100f757600080fd5b506101006105c6565b6040518082815260200191505060405180910390f35b34801561012257600080fd5b50610157600480360381019080803573ffffffffffffffffffffffffffffffffffffffff169060200190929190505050610613565b6040518080602001828103825283818151815260200191508051906020019060200280838360005b8381101561019a57808201518184015260208101905061017f565b505050509050019250505060405180910390f35b3480156101ba57600080fd5b506101c3610769565b6040518080602001828103825283818151815260200191508051906020019060200280838360005b838110156102065780820151818401526020810190506101eb565b505050509050019250505060405180910390f35b34801561022657600080fd5b5061022f610805565b005b34801561023d57600080fd5b506102c5600480360381019080803560001916906020019092919080357effffffffffffffffffffffffffffffffffffffffffffffffffffffffffffff1916906020019092919080357effffffffffffffffffffffffffffffffffffffffffffffffffffffffffffff19169060200190929190803560ff169060200190929190505050610853565b005b3480156102d357600080fd5b50610308600480360381019080803573ffffffffffffffffffffffffffffffffffffffff169060200190929190505050610d12565b6040518080602001828103825283818151815260200191508051906020019060200280838360005b8381101561034b578082015181840152602081019050610330565b505050509050019250505060405180910390f35b34801561036b57600080fd5b5061038a60048036038101908080359060200190929190505050610e68565b60405180826000191660001916815260200191505060405180910390f35b3480156103b457600080fd5b506103bd610fad565b005b3480156103cb57600080fd5b506103d461107f565b6040518082815260200191505060405180910390f35b3480156103f657600080fd5b506103ff6110cc565b6040518080602001828103825283818151815260200191508051906020019060200280838360005b83811015610442578082015181840152602081019050610427565b505050509050019250505060405180910390f35b34801561046257600080fd5b5061046b611168565b604051808273ffffffffffffffffffffffffffffffffffffffff1673ffffffffffffffffffffffffffffffffffffffff16815260200191505060405180910390f35b3480156104b957600080fd5b506104c2611191565b604051808215151515815260200191505060405180910390f35b3480156104e857600080fd5b506104f16111e8565b604051808215151515815260200191505060405180910390f35b34801561051757600080fd5b50610536600480360381019080803590602001909291905050506111fb565b60405180826000191660001916815260200191505060405180910390f35b34801561056057600080fd5b50610595600480360381019080803573ffffffffffffffffffffffffffffffffffffffff16906020019092919050505061131a565b005b3480156105a357600080fd5b506105c4600480360381019080803515159060200190929190505050611339565b005b6000600260003373ffffffffffffffffffffffffffffffffffffffff1673ffffffffffffffffffffffffffffffffffffffff16815260200190815260200160002060000180549050905090565b606061061d611191565b151561062857600080fd5b600073ffffffffffffffffffffffffffffffffffffffff168273ffffffffffffffffffffffffffffffffffffffff16141515156106cd576040517f08c379a00000000000000000000000000000000000000000000000000000000081526004018080602001828103825260158152602001807f5f75736572206d757374206e6f7420626520307830000000000000000000000081525060200191505060405180910390fd5b600260008373ffffffffffffffffffffffffffffffffffffffff1673ffffffffffffffffffffffffffffffffffffffff16815260200190815260200160002060000180548060200260200160405190810160405280929190818152602001828054801561075d57602002820191906000526020600020905b81546000191681526020019060010190808311610745575b50505050509050919050565b6060600260003373ffffffffffffffffffffffffffffffffffffffff1673ffffffffffffffffffffffffffffffffffffffff1681526020019081526020016000206001018054806020026020016040519081016040528092919081815260200182805480156107fb57602002820191906000526020600020905b815460001916815260200190600101908083116107e3575b5050505050905090565b61080d611191565b151561081857600080fd5b600160009054906101000a900473ffffffffffffffffffffffffffffffffffffffff1673ffffffffffffffffffffffffffffffffffffffff16ff5b6000600360009054906101000a900460ff1615156108ff576040517f08c379a00000000000000000000000000000000000000000000000000000000081526004018080602001828103825260248152602001807f436f6e7472616374206d75737420626520616363657074696e67206e6577206681526020017f696c65730000000000000000000000000000000000000000000000000000000081525060400191505060405180910390fd5b600060010285600019161415151561097f576040517f08c379a00000000000000000000000000000000000000000000000000000000081526004018080602001828103825260188152602001807f5f66696c65486173682063616e6e6f74206265206e756c6c000000000000000081525060200191505060405180910390fd5b60007f010000000000000000000000000000000000000000000000000000000000000002847effffffffffffffffffffffffffffffffffffffffffffffffffffffffffffff191614151515610a3c576040517f08c379a000000000000000000000000000000000000000000000000000000000815260040180806020018281038252601c8152602001807f5f6861736846756e6374696f6e2063616e6e6f74206265206e756c6c0000000081525060200191505060405180910390fd5b60007f010000000000000000000000000000000000000000000000000000000000000002837effffffffffffffffffffffffffffffffffffffffffffffffffffffffffffff191614151515610af9576040517f08c379a00000000000000000000000000000000000000000000000000000000081526004018080602001828103825260188152602001807f5f6861736853697a652063616e6e6f74206265206e756c6c000000000000000081525060200191505060405180910390fd5b600260003373ffffffffffffffffffffffffffffffffffffffff1673ffffffffffffffffffffffffffffffffffffffff168152602001908152602001600020600001859080600181540180825580915050906001820390600052602060002001600090919290919091509060001916905550610b76848484611369565b9050600260003373ffffffffffffffffffffffffffffffffffffffff1673ffffffffffffffffffffffffffffffffffffffff1681526020019081526020016000206001018190806001815401808255809150509060018203906000526020600020016000909192909190915090600019169055507fee1a01f62b3e48228ef23214ff0e41cf4e3aa88793f4649dbeaf2191a4b842d53386868686604051808673ffffffffffffffffffffffffffffffffffffffff1673ffffffffffffffffffffffffffffffffffffffff1681526020018560001916600019168152602001847effffffffffffffffffffffffffffffffffffffffffffffffffffffffffffff19167effffffffffffffffffffffffffffffffffffffffffffffffffffffffffffff19168152602001837effffffffffffffffffffffffffffffffffffffffffffffffffffffffffffff19167effffffffffffffffffffffffffffffffffffffffffffffffffffffffffffff19168152602001826003811115610cf457fe5b60ff1681526020019550505050505060405180910390a15050505050565b6060610d1c611191565b1515610d2757600080fd5b600073ffffffffffffffffffffffffffffffffffffffff168273ffffffffffffffffffffffffffffffffffffffff1614151515610dcc576040517f08c379a00000000000000000000000000000000000000000000000000000000081526004018080602001828103825260158152602001807f5f75736572206d757374206e6f7420626520307830000000000000000000000081525060200191505060405180910390fd5b600260008373ffffffffffffffffffffffffffffffffffffffff1673ffffffffffffffffffffffffffffffffffffffff168152602001908152602001600020600101805480602002602001604051908101604052809291908181526020018280548015610e5c57602002820191906000526020600020905b81546000191681526020019060010190808311610e44575b50505050509050919050565b600081600260003373ffffffffffffffffffffffffffffffffffffffff1673ffffffffffffffffffffffffffffffffffffffff16815260200190815260200160002060010180549050111515610f4c576040517f08c379a00000000000000000000000000000000000000000000000000000000081526004018080602001828103825260248152602001807f46696c65206d6574616461746120696e646578206973206f7574206f6620626f81526020017f756e64730000000000000000000000000000000000000000000000000000000081525060400191505060405180910390fd5b600260003373ffffffffffffffffffffffffffffffffffffffff1673ffffffffffffffffffffffffffffffffffffffff16815260200190815260200160002060010182815481101515610f9b57fe5b90600052602060002001549050919050565b610fb5611191565b1515610fc057600080fd5b600073ffffffffffffffffffffffffffffffffffffffff166000809054906101000a900473ffffffffffffffffffffffffffffffffffffffff1673ffffffffffffffffffffffffffffffffffffffff167f8be0079c531659141344cd1fd0a4f28419497f9722a3daafe3b4186f6b6457e060405160405180910390a360008060006101000a81548173ffffffffffffffffffffffffffffffffffffffff021916908373ffffffffffffffffffffffffffffffffffffffff160217905550565b6000600260003373ffffffffffffffffffffffffffffffffffffffff1673ffffffffffffffffffffffffffffffffffffffff16815260200190815260200160002060010180549050905090565b6060600260003373ffffffffffffffffffffffffffffffffffffffff1673ffffffffffffffffffffffffffffffffffffffff16815260200190815260200160002060000180548060200260200160405190810160405280929190818152602001828054801561115e57602002820191906000526020600020905b81546000191681526020019060010190808311611146575b5050505050905090565b60008060009054906101000a900473ffffffffffffffffffffffffffffffffffffffff16905090565b60008060009054906101000a900473ffffffffffffffffffffffffffffffffffffffff1673ffffffffffffffffffffffffffffffffffffffff163373ffffffffffffffffffffffffffffffffffffffff1614905090565b600360009054906101000a900460ff1681565b600081600260003373ffffffffffffffffffffffffffffffffffffffff1673ffffffffffffffffffffffffffffffffffffffff168152602001908152602001600020600001805490501115156112b9576040517f08c379a00000000000000000000000000000000000000000000000000000000081526004018080602001828103825260208152602001807f46696c65206861736820696e646578206973206f7574206f6620626f756e647381525060200191505060405180910390fd5b600260003373ffffffffffffffffffffffffffffffffffffffff1673ffffffffffffffffffffffffffffffffffffffff1681526020019081526020016000206000018281548110151561130857fe5b90600052602060002001549050919050565b611322611191565b151561132d57600080fd5b611336816113e6565b50565b611341611191565b151561134c57600080fd5b80600360006101000a81548160ff02191690831515021790555050565b600080847f0100000000000000000000000000000000000000000000000000000000000000900490506008847f010000000000000000000000000000000000000000000000000000000000000090049060020a028117905060108360038111156113cf57fe5b9060020a0281179050806001029150509392505050565b600073ffffffffffffffffffffffffffffffffffffffff168173ffffffffffffffffffffffffffffffffffffffff161415151561142257600080fd5b8073ffffffffffffffffffffffffffffffffffffffff166000809054906101000a900473ffffffffffffffffffffffffffffffffffffffff1673ffffffffffffffffffffffffffffffffffffffff167f8be0079c531659141344cd1fd0a4f28419497f9722a3daafe3b4186f6b6457e060405160405180910390a3806000806101000a81548173ffffffffffffffffffffffffffffffffffffffff021916908373ffffffffffffffffffffffffffffffffffffffff160217905550505600a165627a7a7230582072c6741996f088c5032a01531724481b889bfc5a593db1854415c0c219ec30530029",
  "source": "pragma solidity ^0.4.24;\n\nimport \"openzeppelin-solidity/contracts/ownership/Ownable.sol\";\n\n/**\n * @title File Storage contract\n * @dev Every address will contain one or more file hashes and \n *      associated metadata (hash function, hash size, file type, etc.)\n * @dev Constructor initialization and owner assignment have been\n *      delegated to the Ownable contract\n */\ncontract FileStorage is Ownable  {\n    address private _owner;\n\n    // Struct for file hashes and metadata\n    struct Files {\n        bytes32[] hashes;\n        bytes32[] metadata;\n    }\n\n    // Support various file types\n    enum FileType { Unknown, Image, Video, Document }\n    \n    // Map sender's address to all uploaded files\n    mapping (address => Files) files;\n\n    // Circuit breaker to disable adding new files in the event of a contract logic issue\n    bool public canAddFile = true;\n\n    modifier acceptingFiles {\n        require(canAddFile, \"Contract must be accepting new files\");\n        _;\n    }\n\n    // Event fired after adding a new file\n    event AddedFile(address _sender, bytes32 _fileHash, bytes1 _hashFunction, bytes1 _hashSize, FileType _fileType);\n\n    // constructor\n    constructor() public {\n        // assign owner from Ownable contract\n        _owner = owner();\n    }\n\n\n    /**\n     * @dev Add a file to the contract\n     * @param _fileHash Hash representation of the file (bytes 3 through 34 of IPFS hash)\n     * @param _hashFunction Hashing algorithm used (1st byte of IPFS hash)\n     * @param _hashSize Length of file hash (2nd byte of IPFS hash)\n     * @param _fileType FileType enum\n     */\n    function addFile(bytes32 _fileHash, bytes1 _hashFunction, bytes1 _hashSize, FileType _fileType) public acceptingFiles {\n        require(_fileHash != 0x0, \"_fileHash cannot be null\");\n        require(_hashFunction != 0x0, \"_hashFunction cannot be null\");\n        require(_hashSize != 0x0, \"_hashSize cannot be null\");\n        \n        // Add fileHash to hashes array\n        files[msg.sender].hashes.push(_fileHash);\n\n        // Add formatted metadata to metadata array\n        bytes32 fileMetadata = formatMetadata(_hashFunction, _hashSize, _fileType);\n        files[msg.sender].metadata.push(fileMetadata);\n\n        emit AddedFile(msg.sender, _fileHash, _hashFunction, _hashSize, _fileType);\n    }\n\n    /**\n     * @dev Prep metadata for storage\n     * @param _hashFunction Hashing algorithm used (1st byte of IPFS hash)\n     * @param _hashSize Length of file hash (2nd byte of IPFS hash)\n     * @param _fileType FileType enum\n     * @return bytes32 formatted object\n     */\n    function formatMetadata(bytes1 _hashFunction, bytes1 _hashSize, FileType _fileType) internal pure returns (bytes32) {\n        // Create file metadata object and assign hashing function\n        uint256 fileMetadata = uint256(_hashFunction);\n        // Add hashSize to metadata using bitwise OR and shifting 8 bits to the left\n        fileMetadata |= uint256(_hashSize)<<8;\n        // Add fileType to metadata using bitwise OR and shifting another 8 bits to the left\n        fileMetadata |= uint256(_fileType)<<16;\n\n        return bytes32(fileMetadata);\n    }\n\n    /**\n     * @dev Get file hash count for a specific address\n     * @return Total number of file hashes for caller's address\n     */\n    function getFileHashCount() public view returns (uint) {\n        return files[msg.sender].hashes.length;\n    }\n\n    /**\n     * @dev Get file metadata count for a specific address\n     * @return Total number of file metadata objects for caller's address\n     */\n    function getFileMetadataCount() public view returns (uint) {\n        return files[msg.sender].metadata.length;\n    }\n\n    /**\n     * @dev Get file hash for a given index\n     * @param _index File hash index\n     * @return File hash\n     */\n    function getFileHash(uint _index) public view returns (bytes32) {\n        require(files[msg.sender].hashes.length > _index, \"File hash index is out of bounds\");\n\n        return files[msg.sender].hashes[_index];\n    }\n\n    /**\n     * @dev Get file metadata for a given index\n     * @param _index File metadata index\n     * @return File metadata\n     */\n    function getFileMetadata(uint _index) public view returns (bytes32) {\n        require(files[msg.sender].metadata.length > _index, \"File metadata index is out of bounds\");\n\n        return files[msg.sender].metadata[_index];\n    }\n\n    /**\n     * @dev Get all file hashes for a specific address\n     * @return Array of file hashes\n     */\n    function getAllFileHashes() public view returns (bytes32[]) {\n        return files[msg.sender].hashes;\n    }\n\n    /**\n     * @dev Get all file metadata for a specific address\n     * @return Array of file metadata\n     */\n    function getAllFileMetadata() public view returns (bytes32[]) {\n        return files[msg.sender].metadata;\n    }\n\n    /**\n     * @dev Owner: get all file hashes for an address\n     */\n    function getFileHashesForAddress(address _user) public view onlyOwner returns (bytes32[]) {\n        require(_user != address(0), \"_user must not be 0x0\");\n\n        return files[_user].hashes;\n    }\n\n    /**\n     * @dev Owner: get all file metadata for an address\n     */\n    function getFileMetadataForAddress(address _user) public view onlyOwner returns (bytes32[]) {\n        require(_user != address(0), \"_user must not be 0x0\");\n\n        return files[_user].metadata;\n    }\n\n    /**\n     * @dev Owner: toggle ability to allow new files\n     */\n    function setCanAddFile(bool value) public onlyOwner {\n        canAddFile = value;\n    }\n\n    /**\n     * @dev Owner: Destroy the contract and withdraw any balance to the owner.\n     *      WARNING: This is an unrecoverable operation!\n     */\n    function kill() public onlyOwner {\n        selfdestruct(_owner);\n    }\n    \n    /**\n     * @dev Fallback function\n     */\n    function () public payable {\n        revert();\n    }\n}",
  "sourcePath": "/Users/marc/github/fyles-contracts/contracts/FileStorage.sol",
  "compiler": {
    "name": "solc",
    "version": "0.4.24+commit.e67f0147.Emscripten.clang"
  },
  "schemaVersion": "2.0.1",
  "updatedAt": "2018-11-01T10:02:18.414Z"
}